{
  "_format": "hh-sol-artifact-1",
  "contractName": "FreelanceEscrow",
  "sourceName": "contracts/FreelanceEscrow.sol",
  "abi": [
    {
      "inputs": [
        {
          "internalType": "address",
          "name": "_freelancer",
          "type": "address"
        }
      ],
      "stateMutability": "payable",
      "type": "constructor"
    },
    {
      "anonymous": false,
      "inputs": [
        {
          "indexed": false,
          "internalType": "address",
          "name": "client",
          "type": "address"
        }
      ],
      "name": "ClientApproval",
      "type": "event"
    },
    {
      "anonymous": false,
      "inputs": [
        {
          "indexed": false,
          "internalType": "address",
          "name": "freelancer",
          "type": "address"
        }
      ],
      "name": "FreelancerApproval",
      "type": "event"
    },
    {
      "inputs": [
        {
          "internalType": "address",
          "name": "freelancerAddress",
          "type": "address"
        },
        {
          "internalType": "address",
          "name": "clientAddress",
          "type": "address"
        }
      ],
      "name": "approveJob",
      "outputs": [],
      "stateMutability": "nonpayable",
      "type": "function"
    },
    {
      "inputs": [],
      "name": "cancelAndRefund",
      "outputs": [],
      "stateMutability": "nonpayable",
      "type": "function"
    },
    {
      "inputs": [],
      "name": "client",
      "outputs": [
        {
          "internalType": "address",
          "name": "",
          "type": "address"
        }
      ],
      "stateMutability": "view",
      "type": "function"
    },
    {
      "inputs": [],
      "name": "clientApproved",
      "outputs": [
        {
          "internalType": "bool",
          "name": "",
          "type": "bool"
        }
      ],
      "stateMutability": "view",
      "type": "function"
    },
    {
      "inputs": [],
      "name": "freelancer",
      "outputs": [
        {
          "internalType": "address",
          "name": "",
          "type": "address"
        }
      ],
      "stateMutability": "view",
      "type": "function"
    },
    {
      "inputs": [],
      "name": "freelancerApproved",
      "outputs": [
        {
          "internalType": "bool",
          "name": "",
          "type": "bool"
        }
      ],
      "stateMutability": "view",
      "type": "function"
    },
    {
      "inputs": [],
      "name": "getContractBalance",
      "outputs": [
        {
          "internalType": "uint256",
          "name": "",
          "type": "uint256"
        }
      ],
      "stateMutability": "view",
      "type": "function"
    },
    {
      "inputs": [],
      "name": "isFunded",
      "outputs": [
        {
          "internalType": "bool",
          "name": "",
          "type": "bool"
        }
      ],
      "stateMutability": "view",
      "type": "function"
    },
    {
      "inputs": [],
      "name": "jobAmount",
      "outputs": [
        {
          "internalType": "uint256",
          "name": "",
          "type": "uint256"
        }
      ],
      "stateMutability": "view",
      "type": "function"
    }
  ],
  "bytecode": "0x6080604052604051610bf3380380610bf383398181016040528101906100259190610131565b336000806101000a81548173ffffffffffffffffffffffffffffffffffffffff021916908373ffffffffffffffffffffffffffffffffffffffff16021790555080600160006101000a81548173ffffffffffffffffffffffffffffffffffffffff021916908373ffffffffffffffffffffffffffffffffffffffff160217905550346002819055506001600360026101000a81548160ff0219169083151502179055505061015e565b600080fd5b600073ffffffffffffffffffffffffffffffffffffffff82169050919050565b60006100fe826100d3565b9050919050565b61010e816100f3565b811461011957600080fd5b50565b60008151905061012b81610105565b92915050565b600060208284031215610147576101466100ce565b5b60006101558482850161011c565b91505092915050565b610a868061016d6000396000f3fe608060405234801561001057600080fd5b50600436106100935760003560e01c80636f9fb98a116100665780636f9fb98a146100fa5780637c65430314610118578063843cf81e14610136578063a37dda2c14610154578063f40a9ce41461017257610093565b80630d2527fb14610098578063109e94cf146100b65780632009dc65146100d457806334ed3e7d146100de575b600080fd5b6100a0610190565b6040516100ad9190610705565b60405180910390f35b6100be610196565b6040516100cb9190610761565b60405180910390f35b6100dc6101ba565b005b6100f860048036038101906100f391906107ad565b610335565b005b6101026105b8565b60405161010f9190610705565b60405180910390f35b6101206105c0565b60405161012d9190610808565b60405180910390f35b61013e6105d3565b60405161014b9190610808565b60405180910390f35b61015c6105e6565b6040516101699190610761565b60405180910390f35b61017a61060c565b6040516101879190610808565b60405180910390f35b60025481565b60008054906101000a900473ffffffffffffffffffffffffffffffffffffffff1681565b60008054906101000a900473ffffffffffffffffffffffffffffffffffffffff1673ffffffffffffffffffffffffffffffffffffffff163373ffffffffffffffffffffffffffffffffffffffff1614610248576040517f08c379a000000000000000000000000000000000000000000000000000000000815260040161023f90610880565b60405180910390fd5b600360009054906101000a900460ff161580156102725750600360019054906101000a900460ff16155b6102b1576040517f08c379a00000000000000000000000000000000000000000000000000000000081526004016102a8906108ec565b60405180910390fd5b60008054906101000a900473ffffffffffffffffffffffffffffffffffffffff1673ffffffffffffffffffffffffffffffffffffffff166108fc479081150290604051600060405180830381858888f19350505050158015610317573d6000803e3d6000fd5b506000600360026101000a81548160ff021916908315150217905550565b600360029054906101000a900460ff16610384576040517f08c379a000000000000000000000000000000000000000000000000000000000815260040161037b90610958565b60405180910390fd5b60008054906101000a900473ffffffffffffffffffffffffffffffffffffffff1673ffffffffffffffffffffffffffffffffffffffff163373ffffffffffffffffffffffffffffffffffffffff16036103f7576001600360006101000a81548160ff0219169083151502179055506104a8565b600160009054906101000a900473ffffffffffffffffffffffffffffffffffffffff1673ffffffffffffffffffffffffffffffffffffffff163373ffffffffffffffffffffffffffffffffffffffff160361046c576001600360016101000a81548160ff0219169083151502179055506104a7565b6040517f08c379a000000000000000000000000000000000000000000000000000000000815260040161049e906109c4565b60405180910390fd5b5b600360009054906101000a900460ff1680156104d05750600360019054906101000a900460ff165b156104e2576104dd61061f565b6105b4565b600360009054906101000a900460ff16801561050b5750600360019054906101000a900460ff16155b1561054c577f0e5c87c8523334c3c58db0a8aecdf6700a09d612183a8d84305505634333cadf8160405161053f9190610761565b60405180910390a16105b3565b600360009054906101000a900460ff161580156105755750600360019054906101000a900460ff165b156105b2577fb07f8135dade8110823f048cb58d22e485bc226901b2d06b5e616b2075ae95a8826040516105a99190610761565b60405180910390a15b5b5b5050565b600047905090565b600360029054906101000a900460ff1681565b600360009054906101000a900460ff1681565b600160009054906101000a900473ffffffffffffffffffffffffffffffffffffffff1681565b600360019054906101000a900460ff1681565b600254471015610664576040517f08c379a000000000000000000000000000000000000000000000000000000000815260040161065b90610a30565b60405180910390fd5b600160009054906101000a900473ffffffffffffffffffffffffffffffffffffffff1673ffffffffffffffffffffffffffffffffffffffff166108fc6002549081150290604051600060405180830381858888f193505050501580156106ce573d6000803e3d6000fd5b506000600360026101000a81548160ff021916908315150217905550565b6000819050919050565b6106ff816106ec565b82525050565b600060208201905061071a60008301846106f6565b92915050565b600073ffffffffffffffffffffffffffffffffffffffff82169050919050565b600061074b82610720565b9050919050565b61075b81610740565b82525050565b60006020820190506107766000830184610752565b92915050565b600080fd5b61078a81610740565b811461079557600080fd5b50565b6000813590506107a781610781565b92915050565b600080604083850312156107c4576107c361077c565b5b60006107d285828601610798565b92505060206107e385828601610798565b9150509250929050565b60008115159050919050565b610802816107ed565b82525050565b600060208201905061081d60008301846107f9565b92915050565b600082825260208201905092915050565b7f4f6e6c7920636c69656e742063616e2063616c6c207468697300000000000000600082015250565b600061086a601983610823565b915061087582610834565b602082019050919050565b600060208201905081810360008301526108998161085d565b9050919050565b7f43616e6e6f742063616e63656c20616674657220617070726f76616c00000000600082015250565b60006108d6601c83610823565b91506108e1826108a0565b602082019050919050565b60006020820190508181036000830152610905816108c9565b9050919050565b7f4a6f62206e6f742066756e646564000000000000000000000000000000000000600082015250565b6000610942600e83610823565b915061094d8261090c565b602082019050919050565b6000602082019050818103600083015261097181610935565b9050919050565b7f4e6f7420617574686f72697a6564000000000000000000000000000000000000600082015250565b60006109ae600e83610823565b91506109b982610978565b602082019050919050565b600060208201905081810360008301526109dd816109a1565b9050919050565b7f496e73756666696369656e742066756e64730000000000000000000000000000600082015250565b6000610a1a601283610823565b9150610a25826109e4565b602082019050919050565b60006020820190508181036000830152610a4981610a0d565b905091905056fea26469706673582212202319ba0055c8189407479e59f6207c3f5188980f9547864a8c9d8c3e09343d1464736f6c634300081c0033",
  "linkReferences": {},
  "deployedLinkReferences": {}
}